:1000000045C0000058C0000056C0000054C00000A9
:1000100052C0000050C000004EC000004CC00000A4
:100020004AC0000048C0000046C0000044C00000B4
:1000300042C0000040C000003EC000003CC00000C4
:100040003AC0000038C0000036C0000034C00000D4
:1000500032C0000030C000002EC000002CC00000E4
:100060002AC0000028C0000026C0000024C00000F4
:1000700022C0000020C000001EC000001CC0000004
:100080001AC0000018C0000016C0000011241FBED6
:10009000CFEFD0E4DEBFCDBF11E0A0E0B1E0EEE7EE
:1000A000F6E000E00BBF02C007900D92A230B1074E
:1000B000D9F7DFD0E2C2A4CF089504C0615071091E
:1000C000810991096115710581059105B9F70895B7
:1000D0008FE084B98AB180638AB987B1806387B9B8
:1000E0002B9A0895882311F0289A08952898089546
:1000F000AF92BF92CF92DF92EF92FF920F931F9336
:10010000299A40910001509101014115510599F141
:10011000952F990F990B6894AA24A6F80F2EF2E454
:10012000BF2EF02D0F2EFFE0CF2EF02DD12CE12C85
:10013000F12C00E010E0242F352F492F592F692F83
:10014000792F892FDCD10F2EF6E0AF2EF02DB12CB8
:10015000C12C28D2215C3D4B404F5F4F6F4F7F4FEA
:100160008F4F9F4F3DD120E034E244E759E4A4D0C3
:100170000BD1A3DF05C061E070E080E090E09DDF7F
:10018000299880910001909101010097A1F1E92F38
:10019000EE0FEE0B6894AA24A6F80F2EF2E4BF2E01
:1001A000F02D0F2EFFE0CF2EF02DD12CE12CF12CD5
:1001B00000E010E0282F392F4E2F5E2F6E2F7E2F5C
:1001C0008E2F9E2F9CD10F2EF6E0AF2EF02DB12C4E
:1001D000C12CE8D1215C3D4B404F5F4F6F4F7F4FAB
:1001E0008F4F9F4FFDD020E034E244E759E464D0C4
:1001F000CBD063DF05C061E070E080E090E05DDFC0
:100200001F910F91FF90EF90DF90CF90BF90AF9034
:100210000895882311F02A9A08952A980895843021
:100220009105A9F034F48130910549F0029759F015
:1002300008958830910579F0409789F008955C9889
:100240005D98449808955C985D98449A08955C98E8
:100250005D9A449808955C985D9A449A08955C9AD2
:100260005D9A449A0895882311F0459A0895459817
:10027000089522DF2DDF789481E090E0D0DF81E0E7
:10028000F2DF81E0C6DF00E010E0FF24F394E12C10
:10029000C0E2DEE481E090E02BDF2197D9F78F2DDB
:1002A000012B09F08E2D082F10E01CDF6EE870E2A4
:1002B00080E090E002DFECCF0CD0E7C0DFD040F070
:1002C000D6D030F021F45F3F19F0C8C0511111C1F0
:1002D000CBC0ECD098F39923C9F35523B1F3951B08
:1002E000550BBB27AA2762177307840738F09F5F57
:1002F0005F4F220F331F441FAA1FA9F333D00E2EC6
:100300003AF0E0E830D091505040E695001CCAF732
:1003100029D0FE2F27D0660F771F881FBB1F2617F7
:1003200037074807AB07B0E809F0BB0B802DBF01CA
:10033000FF2793585F4F2AF09E3F510568F08EC00B
:10034000D8C05F3FECF3983EDCF3869577956795D0
:10035000B795F7959F5FC9F7880F911D969587957B
:1003600097F90895E1E0660F771F881FBB1F62179A
:1003700073078407BA0720F0621B730B840BBA0B58
:10038000EE1F88F7E095089599D088F09F5790F078
:10039000B92F9927B751A0F0D1F0660F771F881FAA
:1003A000991F1AF0BA95C9F712C0B13081F0A0D0E8
:1003B000B1E008959DC0672F782F8827B85F39F086
:1003C000B93FCCF3869577956795B395D9F73EF409
:1003D00090958095709561957F4F8F4F9F4F0895B1
:1003E000E894F92F96EBFF2381F0121613061406FA
:1003F000440B9395F695879577956795579540406B
:10040000FF23B9F71BC099270895882351F498500A
:10041000D2F7872B762F652F542F432F322F20E0D2
:10042000B1F3121613061406440B88233AF09A957A
:10043000440F551F661F771F881FCAF755234AF4BC
:10044000440F551F11F460FF04C06F5F7F4F8F4F43
:100450009F4F880F9695879597F9089597F99F670D
:1004600080E870E060E008959FEF80EC089500243C
:100470000A941616170618060906089500240A9409
:1004800012161306140605060895092E0394000C8F
:1004900011F4882352F0BB0F40F4BF2B11F460FF1E
:1004A00004C06F5F7F4F8F4F9F4F089557FD905847
:1004B000440F551F59F05F3F71F04795880F97FB28
:1004C000991F61F09F3F79F08795089512161306E2
:1004D0001406551FF2CF4695F1DF08C01616170611
:1004E0001806991FF1CF8695710561050894089546
:1004F000E894BB2766277727CB0197F90895DF9308
:10050000CF931F930F939A9DF02D219FF00D8B9DFC
:10051000F00D8A9DE02DF10D039FF00D029FE00D7F
:10052000F11D4E9DE00DF11D5E9DF00D4F9DF00DF6
:100530007F936F93BF92AF925F934F93D5018ED00D
:100540008B01AC01D7018AD0EB01E80FF91FD6016E
:100550001FD02F913F91D60181D0C60FD71FE81F22
:10056000F91FAF91BF9114D02F913F9177D0C60F53
:10057000D71FE81FF91FD60171D0E60FF71F9801AA
:10058000BE01CF0111240F911F91CF91DF910895EA
:1005900065D0460F571FC81FD91F08F4319608951C
:1005A000689401C0E8948F929F92CF93DF9305D017
:1005B000DF91CF919F908F90089588249924F40122
:1005C000E401B0E49F93AA279A158B049C04ED05DF
:1005D000FE05CF05D007A10798F4AD2FDC2FCF2F54
:1005E000FE2FE92D982C892E982F872F762F652F97
:1005F000542F432F322F2227B85031F7BF9127C0F5
:100600001B2EBF91BB27220F331F441F551F661F90
:10061000771F881F991F881C991CEE1FFF1FCC1F76
:10062000DD1FAA1FBB1F8A149B04EC05FD05CE0528
:10063000DF05A007B10748F08A189B08EC09FD09FF
:10064000CE09DF09A00BB10B21601A94E1F62EF45C
:100650009401AF01BE01CD01000C0895A29FB0012D
:10066000B39FC001A39F700D811D1124911DB29FE6
:0E067000700D811D1124911D0895F894FFCF87
:02067E00EE028A
:00000001FF
