S00D00006D6F746F722E73726563E6
S113000045C000004BC0000049C0000047C00000CC
S113001045C0000043C0000041C000003FC00000D4
S11300203DC000003BC0000039C0000037C00000E4
S113003035C0000033C0000031C000002FC00000F4
S11300402DC000002BC0000029C0000027C0000004
S113005025C0000023C0000021C000001FC0000014
S11300601DC000001BC0000019C0000017C0000024
S113007015C0000013C0000011C000000FC0000034
S11300800DC000000BC0000009C0000011241FBEF9
S1130090CFEFD0E4DEBFCDBF21D03CC0B1CF0895B7
S11300A004C06150710981099109611571058105C7
S11300B09105B9F70895882311F0289A089528988E
S11300C00895299A67EA70E080E090E0E9DF2998D2
S11300D067EA70E080E090E0E3CF0895E0DF83E03A
S11300E084B901E010E0FF24F394E12CC0E1D7E2ED
S11300F081E090E0E6DF2197D9F78F2D012B09F0FD
S11301008E2D082F10E0D7DF6EE870E280E090E0DB
S10B0110C7DFECCFF894FFCF28
S9030000FC
